:020000040800F2
:100000005807002029020008F519000819190008EE
:10001000F1190008170400080D1F00080000000077
:10002000000000000000000000000000FB190008B4
:100030003705000800000000F9190008FD19000844
:10004000430200084302000843020008430200087C
:10005000430200084302000843020008430200086C
:10006000430200084302000843020008430200085C
:100070001D04000843020008430200084302000870
:10008000430200084302000843020008430200083C
:10009000430200084302000843020008430200082C
:1000A000430200084302000843020008430200081C
:1000B000430200084302000843020008430200080C
:1000C00043020008430200084302000843020008FC
:1000D000430200084302000843020008F91E00081A
:1000E00043020008430200084302000843020008DC
:1000F00043020008430200084302000843020008CC
:1001000043020008430200084302000843020008BB
:1001100043020008430200084302000843020008AB
:10012000430200084302000843020008430200089B
:10013000430200084302000843020008430200088B
:10014000430200084302000843020008430200087B
:10015000430200084302000843020008430200086B
:10016000430200084302000843020008430200085B
:100170004302000843020008430200080000000098
:10018000430200084302000800F002F800F03CF8C7
:100190000AA090E8000C82448344AAF10107DA45E2
:1001A00001D100F031F8AFF2090EBAE80F0013F0F8
:1001B000010F18BFFB1A43F0010318475C21000030
:1001C0007C210000103A24BF78C878C1FAD85207C1
:1001D00024BF30C830C144BF04680C6070470000C1
:1001E0000023002400250026103A28BF78C1FBD840
:1001F000520728BF30C148BF0B6070471FB502F0DF
:1002000075F81FBD10B510BD00F0CFF81146FFF70F
:10021000F5FF01F0DDFE00F0EDF803B4FFF7F2FFAB
:1002200003BC00F0F1F80000094880470948004786
:10023000FEE7FEE7FEE7FEE7FEE7FEE7FEE7FEE796
:10024000FEE7FEE704480549054A064B70470000F3
:10025000BD1A000889010008580100205807002035
:10026000580300205803002053EA020C00F0698074
:100270002DE9F04B4FF00006002B1FBFB3FA83F5BA
:1002800003FA05F424FA05F65E4012BF1643B2FAEB
:1002900082F502FA05F4C5F120051EBF22FA05FC1D
:1002A00044EA0C04203556EA044C4FEA144418BFC3
:1002B000641C4FF000084FF00009904271EB030CF2
:1002C00039D3002919BFB1FA81F701FA07F6B0FA5C
:1002D00080F700FA07F6C7F120071EBF20FA07FCD7
:1002E00046EA0C062037B6FBF4FCA7EB0507103FE7
:1002F00007F01F0BCBF120060CFA0BFB2CFA06F6CD
:1003000044BFB3460026202FA4BF5E464FF0000B2B
:100310005BEA060C08BF4FF0010B19EB0B09ABFBB6
:10032000027C48EB0608C01B06FB02CC0BFB03CC8F
:1003300071EB0C01C1E70B46024641464846BDE859
:10034000F08B13B54FF000004FF00001AFF30080C9
:10035000BDE81C4070474FF0000200B513469446BC
:100360009646203922BFA0E80C50A0E80C50B1F10D
:100370002001BFF4F7AF090728BFA0E80C5048BF21
:100380000CC05DF804EB890028BF40F8042B08BFBF
:10039000704748BF20F8022B11F0804F18BF00F8BB
:1003A000012B7047704770477047754600F028F87A
:1003B000AE4605006946534620F00700854618B052
:1003C00020B5FFF73FFFBDE820404FF000064FF09B
:1003D00000074FF000084FF0000B21F00701AC467A
:1003E000ACE8C009ACE8C009ACE8C009ACE8C00999
:1003F0008D4670470446AFF300802046FFF70DFF9F
:1004000000487047F800002001491820ABBEFEE705
:1004100026000200704700BFFEE7000010B502484A
:1004200000F0F8F810BD00007000002001460878C8
:1004300010381823B0FBF3F20848805CC865032A23
:1004400005D908686FF30900001D886503E0086896
:100450006FF309008865886D70470000F622000878
:10046000014600208A6A8B69CBB932B1012A0DD0CE
:10047000022A03D0032A10D10EE000BFCB6A03F09A
:100480008073B3F1807F00D1012007E0CB6AB3F124
:10049000C07F00D1012001E000E000BF34E08B69A3
:1004A000B3F5005F1AD132B1012A07D0022A03D076
:1004B000032A11D10AE000BF01200EE0CB6A03F04D
:1004C0008073B3F1807F00D1012006E0CB6AB3F1E5
:1004D000C07F00D1012000E000BF15E032B1012A49
:1004E00005D0022A04D0032A0CD103E000BF00BFCC
:1004F000012008E0CB6A03F08073B3F1807F00D164
:10050000012000E000BF00BF704730B504682468D8
:1005100024F4802405682C60046863608468402C9F
:1005200004D10468A2600468E16003E00468A1608B
:100530000468E26030BD704772B600BFFEE770B578
:100540000446A56D00F02AFB064694F83500022803
:1005500008D08020606500BF002084F8340000BF10
:10056000012070BD2068006820F016002168086036
:100570002068406920F0800021684861206C08B93B
:10058000A06C28B12068006820F00800216808608D
:100590002068006820F001002168086010E000F089
:1005A000FDFA801B05280BD920206065032084F804
:1005B000350000BF002084F8340000BF0320D0E7DE
:1005C0002068006800F001000028E8D194F85C1071
:1005D0003F208840A860012084F8350000BF00203B
:1005E00084F8340000BF00BFBBE7014691F8350036
:1005F000022803D08020486501207047052081F83B
:1006000035000868006820F001000A6810600020CA
:10061000F3E70000F8B50446002000908C4800681D
:100620004FF41651B0FBF1F7A56D2E6894F85C10ED
:1006300008208840304098B12068006800F004002D
:1006400070B12068006820F004002168086094F808
:100650005C1008208840A860606D40F00100606573
:1006600094F85C1001208840304068B120684069EF
:1006700000F0800040B194F85C1001208840A86030
:10068000606D40F00200606594F85C1004208840C2
:10069000304068B12068006800F0020040B194F872
:1006A0005C1004208840A860606D40F00400606524
:1006B00094F85C1010208840304078B320680068BF
:1006C00000F0080050B394F85C1010208840A86037
:1006D0002068006800F4802080B12068006800F481
:1006E000002028B9206CC8B12046216C884715E04D
:1006F000A06C98B12046A16C88470FE02068006884
:1007000000F4807028B92068006820F00800216893
:100710000860206C10B12046216C884794F85C106A
:10072000202088403040002865D02068006800F014
:10073000100000285FD094F85C1020208840A8604A
:1007400094F83500052828D12068006820F01600AC
:10075000216808602068406920F0800021684861B5
:10076000206C08B9A06C28B12068006820F008004F
:100770002168086094F85C103F208840A860012040
:1007800084F8350000BF002084F8340000BF206DDD
:1007900010B12046216D8847F8BD2068006800F43C
:1007A000802080B12068006800F4002028B9606CC7
:1007B00010B12046616C88471DE0E06BD8B120463F
:1007C000E16B884717E02068006800F4807068B922
:1007D0002068006820F0100021680860012084F87B
:1007E000350000BF002084F8340000BFE06B10B17A
:1007F0002046E16B8847606D38B3606D00F0010002
:10080000F0B1052084F835002068006820F0010070
:100810002168086000BF0098401C0090B84200D9D1
:1008200005E02068006800F001000028F3D100BF57
:10083000012084F8350000BF002084F8340000BF98
:10084000E06C10B12046E16C884700BFA4E70000CF
:100850000C0000202DE9F0410446002500F09EF92F
:10086000074614B90120BDE8F081606A00B100BFFD
:10087000022084F8350000BF002084F8340000BF57
:100880002068006820F00100216808600AE000F09C
:1008900085F9C01B052805D920206065032084F850
:1008A0003500E0E72068006800F001000028EED184
:1008B0002068056821480540D4E901010843E16842
:1008C00008432169084361690843A1690843E16954
:1008D0000843216A08430543606A042803D1D4E928
:1008E0000B0108430543206805602068456925F031
:1008F0000705606A0543606A04280DD1A06A0543B4
:10090000E06A48B12046FFF7ABFD28B140206065A2
:10091000012084F83500A6E7206845612046FFF7EE
:1009200085FD064694F85C103F208840B0600020AA
:100930006065012084F83500002094E73F8010F0C6
:100940002DE9F04104460D4616461F464FF00008BB
:1009500000BF94F83400012802D10220BDE8F081E4
:10096000012084F8340000BF94F83500012811D12B
:10097000022084F83500002060653B463246294657
:100980002046FFF7C2FD2068006840F001002168A2
:10099000086006E000BF002084F8340000BF4FF07C
:1009A00002084046DAE70000F8B502460B4600258B
:1009B000002400200021D6E0012606FA01F51E6879
:1009C00006EA0504AC4274D11E7906F00306012E36
:1009D00004D01E7906F00306022E13D190684F0052
:1009E0000326BE40B0434F00DE68BE4030439060F7
:1009F000506801268E40B0431E79C6F300168E4023
:100A0000304350601E7906F00306032E09D0D068EB
:100A10004F000326BE40B0434F009E68BE403043A7
:100A2000D0601E7906F00306022E13D1CF0802F122
:100A3000200656F827004E07F70E0F26BE40B0439B
:100A40004F07FF0E1E69BE403043CF0802F120065B
:100A500046F8270010684F000326BE40B0431E79B9
:100A600006F003064F00BE40304310605E6806F497
:100A70004036002E76D000BF002600963C4E3668E9
:100A800046F480463A4F3E603E46366806F480465D
:100A9000009600BF00BF374E8F0856F827008E071C
:100AA000370F0F26BE40B043334EB24202D100266C
:100AB00024E057E0314EB24201D101261EE0304E13
:100AC000B24201D1022619E02E4EB24201D10326D4
:100AD00014E02D4EB24201D104260FE02B4EB2425B
:100AE00001D105260AE02A4EB24201D1062605E0D0
:100AF000284EB24201D1072600E008268F073F0F9B
:100B0000BE4030431B4E8F0846F82700224E306807
:100B1000A0435E6806F4801606B120431E4E306086
:100B2000361D3068A0435E6806F4001606B1204307
:100B3000194E361D3060184E361F3068A0435E686F
:100B400006F4003606B12043134E361F3060361FC0
:100B50003068A0435E6806F4803606B120430E4E2E
:100B6000083E3060491C1029FFF426AFF8BD000094
:100B700044380240083801400000024000040240AE
:100B800000080240000C0240001002400014024025
:100B900000180240001C0240083C01400148006867
:100BA00070470000000000200348006803490978EE
:100BB0000844014908607047000000200800002038
:100BC00010B50D48006840F400700B4908600846F5
:100BD000006840F4806008600846006840F4807057
:100BE0000860032000F0A6F80F2000F007F800F0DE
:100BF0002BF8002010BD0000003C024070B50446F8
:100C00000E4800784FF47A71B1FBF0F00C49096896
:100C1000B1FBF0F5284600F02FFC08B1012070BDB3
:100C2000102C07D200222146501E00F045F805483E
:100C3000046001E00120F2E70020F0E70800002056
:100C40000C0000200400002008B500BF0020009028
:100C50000E48006840F480400C490860084600686F
:100C600000F48040009000BF00BF00BF0020009053
:100C7000081F006840F08050091F0860084600689F
:100C800000F08050009000BF00BF08BD4438024013
:100C90000146084600280DDB00BF00BF00F01F031F
:100CA00001229A4043099B0003F1E023C3F800218D
:100CB00000BF00BF00BF70472DE9F05F80460D46C2
:100CC0001646002701F024F9074639462A463346DE
:100CD00001F00700C0F1070ABAF1040F02D94FF082
:100CE000040A01E0C0F1070AD14600F1040ABAF192
:100CF000070F02D24FF0000A01E0A0F1030AD44628
:100D00004FF0010A0AFA09FAAAF1010A0AEA020AEC
:100D10000AFA0CFA4FF0010B0BFA0CFBABF1010BCA
:100D20000BEA030B4AEA0B042146404601F0F8F8AF
:100D3000BDE8F09F00BF00F00702064B19684FF6B0
:100D4000FF031940044B0B4343EA0221014B196096
:100D500000BF70470CED00E00000FA0570B50446D6
:100D60000D460CB9012070BD5848006800F007001E
:100D7000A84209D255490D700846006800F00700E6
:100D8000A84201D00120EEE7207800F002000228FE
:100D90001DD1207800F00400042805D14C480068DB
:100DA00040F4E0504A490860207800F00800082824
:100DB00005D14748006840F4604045490860444810
:100DC000006820F0F000A1680843414908602078DD
:100DD00000F00100A8B36068012807D13C4808383A
:100DE0000068C0F34040B8B90120BCE76068022841
:100DF00002D06068032807D1354808380068C0F37E
:100E0000406048B90120AEE7314808380068C0F3B7
:100E1000400008B90120A6E72D48006820F0030033
:100E2000616808432A490860FFF7B8FE064609E0F2
:100E3000FFF7B4FE801B41F28831884202D90320BB
:100E400091E707E02248006800F00C006168B0EB11
:100E5000810FEDD11D48006800F00700A84209D9B4
:100E60001A490D700846006800F00700A84201D03A
:100E7000012078E7207800F00400042807D1144806
:100E8000006820F4E050E1680843114908602078C8
:100E900000F00800082808D10D48006820F46040E0
:100EA000216940EAC1000A49086000F03FF808499A
:100EB0000968C1F30311074A515CC840064908603C
:100EC00006480068FFF79AFE00204CE7003C02400D
:100ED00008380240FE2200080C0000200400002018
:100EE00001480068704700000C00002000B5FFF7C3
:100EF000F7FF04490968C1F38221034A515CC840E5
:100F000000BD0000083802400E23000800B5FFF7BE
:100F1000E7FF04490968C1F34231034A515CC84004
:100F200000BD0000083802400E2300082DE9F047FC
:100F3000002400250026A1462548006800F00C008A
:100F400020B1042805D008283AD105E0DFF88490C4
:100F500039E0DFF8849036E01D48001F006800F09B
:100F60003F041B48001F006800F4800078B11A4855
:100F70001749091F0968C1F38811A0FB01700146D8
:100F8000224600233846FFF76FF905460EE0114868
:100F90000F49091F0968C1F38811A0FB01700146C0
:100FA000224600233846FFF75FF905460848001F30
:100FB0000068C0F30140401C4600B5FBF6F902E0B2
:100FC000DFF8109000BF00BF4846BDE8F087000082
:100FD000083802400024F40040787D01F8B504464A
:100FE0000CB90120F8BD207800F00100002874D071
:100FF000F948006800F00C0004280DD0F64800689D
:1010000000F00C00082813D1F348001F006800F41A
:101010008000B0F5800F0BD1EF4808380068C0F3AE
:101020004040002859D06068002856D10120D9E7F7
:1010300000BF6068B0F5803F08D1E7480838006815
:1010400040F48030E449083908601EE06068B0F57B
:10105000A02F0DD1E0480838006840F48020DE4918
:10106000083908600846006840F4803008600CE0E9
:10107000D9480838006820F48030D749083908601A
:101080000846006820F48020086000BF606890B1C6
:10109000FFF784FD054606E0FFF780FD401B64284E
:1010A00001D903209EE7CC4808380068C0F34040CF
:1010B0000028F1D011E0FFF771FD054606E0FFF7CB
:1010C0006DFD401B642801D903208BE7C248083816
:1010D0000068C0F340400028F1D1207800F0020001
:1010E00002285FD1BC48006800F00C0058B1BA4833
:1010F000006800F00C0008281CD1B748001F0068E9
:1011000000F48000B0B9B44808380068C0F340006B
:1011100020B1E068012801D0012063E7AE4808381B
:10112000006820F0F800216940EAC100AA490839A6
:10113000086037E0E06800B30120A8490860FFF7C5
:101140002DFD054606E0FFF729FD401B022801D9C9
:10115000032047E7A04808380068C0F34000002893
:10116000F1D09D480838006820F0F800216940EA75
:10117000C10099490839086014E0002097490860C7
:10118000FFF70CFD054606E0FFF708FD401B0228AF
:1011900001D9032026E7904808380068C0F34000D2
:1011A0000028F1D1207800F0080008282CD16069CF
:1011B000A8B101208A490860FFF7F0FC054606E067
:1011C000FFF7ECFC401B022801D903200AE7824804
:1011D0006C300068C0F340000028F1D014E000201B
:1011E0007F490860FFF7DAFC054606E0FFF7D6FC0A
:1011F000401B022801D90320F4E677486C300068D0
:10120000C0F340000028F1D1207800F00400042849
:1012100070D1002770483830006800F0805090B9D5
:1012200000BF002000906C483830006840F08050CB
:101230006949383108600846006800F08050009025
:1012400000BF00BF01276748006800F48070B0B994
:101250006448006840F4807062490860FFF79EFCB3
:10126000054606E0FFF79AFC401B022801D903203F
:10127000B8E65C48006800F480700028F2D000BF37
:10128000A068012808D154486830006840F0010087
:101290005149683108601DE0A06805280DD14E480D
:1012A0006830006840F004004B4968310860084627
:1012B000006840F0010008600CE0474868300068B2
:1012C00020F001004449683108600846006820F0B9
:1012D0000400086000BFA068A8B1FFF75FFC0546E6
:1012E00009E0FFF75BFC401B41F28831884202D9DC
:1012F000032077E626E0384868300068C0F34000F5
:101300000028EED013E0FFF749FC054608E0FFF7A0
:1013100045FC401B41F28831884201D9032061E637
:101320002D4868300068C0F340000028EFD1012F3D
:1013300007D129483830006820F0805026493831DC
:10134000086000BFA069002845D02348006800F06D
:101350000C0008285DD0A069022845D100201F4953
:101360000866FFF71BFC054606E0FFF717FC401B6D
:10137000022801D9032035E6174808380068C0F371
:1013800040600028F1D1D4E907010843616A40EACE
:1013900081110122A06AC2EB500041EA00412C20D9
:1013A000005D41EA00600C49091F086001200B49FB
:1013B0000866FFF7F3FB054606E0FFF7EFFB401B6F
:1013C000022801D903200DE6034808380068C0F35D
:1013D00040600028F1D049E0083802400000474250
:1013E000800E474200700040002021490866FFF748
:1013F000D5FB054606E0FFF7D1FB401B022801D9CB
:101400000320EFE51B480068C0F340600028F2D1DC
:101410002CE0A069012800D1E4E51648001D06680B
:10142000A069012820D006F48001E06981421BD127
:1014300006F03F01206A814216D147F6C070304065
:10144000616AB0EB811F0FD106F440310122A06A1E
:10145000C2EB5000B1EB004F06D106F070612C20BA
:10146000005DB1EB006F01D00120BBE50020B9E5C4
:10147000000047420038024070B504462546681E09
:10148000B0F1807F01D301200FE0681E4FF0E02112
:1014900048610F214FF0FF3000F042FD00204FF077
:1014A000E021886107200861002070BD7047704707
:1014B0002DE9F84F0446206805682068C668206852
:1014C00047694FF00009CA4605F00F09B9F1000F4E
:1014D0000AD105F0200038B106F0200020B12046E6
:1014E00000F045FBBDE8F88FB9F1000F7CD007F0A4
:1014F000010018B906F49070002875D005F00100BD
:1015000030B106F4807018B1606C40F00100606486
:1015100005F0040030B107F0010018B1606C40F034
:101520000200606405F0020030B107F0010018B15C
:10153000606C40F00400606405F0080048B106F0FB
:10154000200010B907F0010018B1606C40F00800ED
:101550006064606C002846D005F0200028B106F0D9
:10156000200010B1204600F002FB20684069C0F363
:10157000801A606C00F0080010B9BAF1000F2DD08D
:10158000204600F0AEFA2068406900F04000402894
:1015900020D100BF00BF2168143151E8001F21F0A5
:1015A00040002168143141E80002002AF3D100BF55
:1015B000E06B50B17F48E16B0865E06BFFF715F811
:1015C00088B1E06B016D88470DE02046FFF76FFFA3
:1015D00009E009E02046FFF76AFF04E02046FFF734
:1015E00066FF002060647DE7206B012878D105F05C
:1015F0001000002874D006F010000028FAD000BFB8
:1016000000200090206800680090206840680090EA
:1016100000BF00BF2068406900F04000402870D142
:10162000E06B006840681FFA80F8B8F1000F58D0EE
:10163000A08D404555DDA4F82E80E06BC069B0F563
:10164000807F43D000BF00BF21680C3151E8001FEC
:1016500021F4807021680C3141E80002002AF3D1A6
:1016600000BF00BF00BF2168143151E8001F21F006
:1016700001002168143141E80002002AF3D100BFC3
:1016800000BF00BF2168143151E8001F21F0400065
:101690002168143141E80002002AF3D100BF202064
:1016A00084F842000020206300BF00BF21680C3195
:1016B00051E8001F21F0100021680C3141E80002C0
:1016C000002AF3D100BFE06BFEF739FF0220606310
:1016D000A08DE28D801A81B22046FFF7E7FE0EE072
:1016E00052E0A08D40450AD1E06BC069B0F5807F23
:1016F00005D102206063A18D2046FFF7D7FEF1E6F9
:10170000FFE7A08DE18D401A1FFA80F8E08DD0B37D
:10171000B8F1000F37D000BF00BF21680C3151E88D
:10172000001F21F4907021680C3141E80002002A6A
:10173000F3D100BF00BF00BF2168143151E8001F82
:1017400021F001002168143141E80002002AF3D1A0
:1017500000BF202084F842000020206300BF00BFAB
:1017600021680C3151E8001F21F0100021680C3174
:1017700041E80002002AF3D100BF02206063414625
:101780002046FFF793FEADE605F0800030B106F08D
:10179000800018B1204600F07FFBA3E605F0400072
:1017A00030B106F0400018B1204600F0D0F999E6BB
:1017B00000BF97E6D11A000810B504460CB9012005
:1017C00010BDA06900B100E000BF94F8410028B945
:1017D000002084F84000204600F02AF8242084F8F5
:1017E00041002068C06820F400502168C86020468D
:1017F00000F03CFA2068006920F4904021680861FC
:101800002068406920F02A00216848612068C0688B
:1018100040F400502168C86000206064202084F8F3
:10182000410084F842000020606300BFC8E7000068
:1018300010B586B00446142101A8FEF78CFD30498E
:10184000206888425AD100BF002000902D480068CF
:1018500040F480202B4908600846006800F480208E
:10186000009000BF00BF00BF002000902548103846
:10187000006840F0040023491039086008460068F9
:1018800000F00400009000BF00BF4FF440600190E2
:10189000022002900020039003200490072005906E
:1018A00001A91948FFF780F81848194908604FF056
:1018B00000604860002116488160C1604FF480617B
:1018C00001610021416181614FF48071C1614FF478
:1018D0004031016200214162FEF7BCFF08B1FEF712
:1018E0002BFE00BF0A48E063846300BF002211465C
:1018F0002720FFF7E1F92720FFF7CAF906B010BD4E
:101900000048004040380240000802402860024081
:10191000700000207047704700BFFEE708B500BFA9
:10192000002000900A48006840F400100849086050
:101930000846006800F40010009000BF00BF0022BD
:1019400011460C20FFF7B8F90C20FFF7A1F908BDEC
:101950003038024008B500BF0020009015480068EC
:1019600040F00100134908600846006800F00100DB
:10197000009000BF00BF00BF002000900846006834
:1019800040F0040008600846006800F00400009081
:1019900000BF00BF00BF002000900846006840F074
:1019A000800008600846006800F08000009000BFDA
:1019B00000BF08BD3038024010B50A480A49086027
:1019C0000A484860002108488160C16001610C211B
:1019D000416100218161C161FFF7EEFE08B1FEF7B0
:1019E000ABFD10BD0048004028000020A08601008B
:1019F00000BFFEE700BFFEE77047704710B5FFF776
:101A0000D3F810BD00B593B0302107A8FEF7A3FCB2
:101A1000142102A8FEF79FFC00BF0020019025487A
:101A2000006840F08050234908600846006800F0D4
:101A30008050019000BF00BF00BF002001901E48F1
:101A4000006840F480401C4908600846006800F4C3
:101A50008040019000BF00BF0220079001200A9043
:101A600010200B9002200D9000210E9108210F9163
:101A7000A8211091022111910421129107A8FFF7CA
:101A8000ADFA08B1FEF758FD0F2002900220039036
:101A9000002004904FF4A05005904FF48050069021
:101AA000052102A8FFF75AF908B1FEF745FD13B06A
:101AB00000BD00004038024000700040034800684C
:101AC00040F47000014908607047000088ED00E0B4
:101AD00070B50446A56B0020E8852846FFF7E7FCB3
:101AE00070BD00BF00BF02680C3252E8002F22F424
:101AF000907102680C3242E80013002BF3D100BF52
:101B000000BF00BF0268143252E8002F22F001012A
:101B10000268143242E80013002BF3D100BF016BBE
:101B200001290ED100BF00BF02680C3252E8002F1D
:101B300022F0100102680C3242E80013002BF3D1AE
:101B400000BF202180F8421000210163704710B5CA
:101B500004462068C06820F040002168C86020204A
:101B600084F841002046FFF7D6FE002010BDF8B5EE
:101B700004460025002694F84200222873D1A0686C
:101B8000B0F5805F0BD1206948B9A66A206840682B
:101B9000C0F308003080A06A801CA06214E0A56A2F
:101BA000A068B0F5805F03D0A06828B9206918B993
:101BB00020684068287004E02068406800F07F00DA
:101BC0002870A06A401CA062E08D401E80B2E085B3
:101BD000002846D12068C06820F020002168C86035
:101BE0002068C06820F480702168C860206840695F
:101BF00020F0010021684861202084F84200002084
:101C00006063206B012826D10020206300BF00BF45
:101C100021680C3151E8001F21F0100021680C31BF
:101C200041E80002002AF3D100BF2068006800F0FC
:101C3000100010280AD100BF002000902068006822
:101C4000009020684068009000BF00BFA18D204632
:101C5000FFF72CFC02E02046FFF75CFE0020F8BDF9
:101C600001E00020FBE70220F9E700002DE9F84F32
:101C700004462068006920F44050E1680843216868
:101C800008612169A068084361690843E169084364
:101C900000902068C06849F20C61884300990843AD
:101CA0002168C8602068406920F44070A169084339
:101CB0002168486176492068884203D075492068C8
:101CC000884203D1FFF722F9814602E0FFF70EF9BF
:101CD0008146E069B0F5004F6CD102206168A0FB3D
:101CE000015003461920A9FB007001462A463846D8
:101CF000FEF7BAFA6421B0FBF1F04FEA001A0220B5
:101D00006168A0FB01510B461920A9FB00712A460E
:101D10003846FEF7A9FA834602206168A0FB01500D
:101D200003461920A9FB00712A463846FEF79CFAA3
:101D30006421B0FBF1F000EBC00101EB0010ABEB54
:101D40008000322101EBC0006421B0FBF1F000F013
:101D5000F8000AEB400A02206168A0FB015003462C
:101D60001920A9FB007001462A463846FEF77CFA86
:101D7000834602206168A0FB015003461920A9FB9D
:101D800000712A463846FEF76FFA6421B0FBF1F085
:101D900000EBC00101EB0010ABEB8000322101EB46
:101DA000C0006421B0FBF1F000F00700504421684E
:101DB00088606AE004206168A0FB01500346192096
:101DC000A9FB007001462A463846FEF74DFA8246C6
:101DD00004206168A0FB015003461920A9FB007094
:101DE00001462A463846FEF73FFA6421B0FBF1F07F
:101DF00000EBC00101EB0010AAEB8000322101EBE7
:101E000000106421B0FBF1F000F0F00A04206168DA
:101E1000A0FB017003461920A9FB00513A46284651
:101E2000FEF722FA6421B0FBF1F00AEB001A04205D
:101E30006168A0FB01510B461920A9FB00712A46DD
:101E40003846FEF711FA834604206168A0FB015072
:101E500003461920A9FB007001462A463846FEF7C2
:101E600003FA6421B0FBF1F000EBC00101EB0010BC
:101E7000ABEB8000322101EB00106421B0FBF1F0EC
:101E800000F00F00504421688860BDE8F88F000022
:101E90000010014000140140014691F84100212842
:101EA00028D18868B0F5805F0BD1086948B90A6A03
:101EB0001088C0F308000B685860086A801C08622C
:101EC00005E00B6A581C086218780B685860C88CCB
:101ED000401E80B2C88458B90868C06820F08000ED
:101EE0000B68D8600868C06840F040000B68D86094
:101EF000002070470220FCE710B5034800F0A6F967
:101F00000148FFF7D5FA10BD2800002000BFFEE70A
:101F100002480068C0F30220704700000CED00E0AA
:101F200010B5002804DB0A07130E054A135406E017
:101F30000A07140E034A00F00F031B1FD45410BDF0
:101F400000E400E018ED00E008B500BF00200090BC
:101F50000B480068006800900948006840680090DD
:101F600000BF00BF06480068C06840F01000044988
:101F70000968C86032220349014800F043F908BDEE
:101F800028000020E60000200146486880B2704723
:101F900000B50C480C490A6802604A6842608968CA
:101FA00081600948827A0748817A084800F096F8EB
:101FB0000548C27A0348C17A0448401C00F08EF8F4
:101FC00000BD00001C00002010000020E4000020E4
:101FD000FEF7F6FDFFF716FDFFF7BCFCFFF79EFCD2
:101FE000FFF7EAFCFFF7B0FF00BFFEE770B50A7825
:101FF0004B7842EA0322C2F30A0202800288A2F569
:10200000806212B202804A78D2108B7842EA431280
:10201000C2F30A0242804288A2F5806212B2428074
:102020008A789211CB7842EA83020B7942EA8322C2
:10203000C2F30A0282808288A2F5806212B2828094
:102040000A7952104B7942EAC312C2F30A02C280E3
:10205000C288A2F5806212B2C2800A7C4B7C42EA3E
:102060000322C2F30A0202810289A2F5806212B23F
:1020700002814A791211920882724A79C2F30112DE
:10208000C272B0F90050002D01DB2E4600E06E4216
:10209000B6F5257F1DDCB0F90240002C01DB264699
:1020A00000E06642B6F5257F13DCB0F90430002B62
:1020B00001DB1E4600E05E42B6F5257F09DCB0F983
:1020C0000620002A01DB164600E05642B6F5257FC1
:1020D00003DD002202604260826070BD012904D0ED
:1020E00002290FD003292BD119E0012A02D0032A9B
:1020F00006D102E00023037002E00323037000BF57
:1021000000BF1EE0022A02D0032A06D102E0022309
:10211000037002E00623037000BF00BF11E0012A34
:1021200006D0022A07D0032A08D10123037005E054
:102130000423037002E00523037000BF00BF00E02A
:1021400000BF00BF7047000030B504460D46B4F92B
:10215000000000EE100AB8EEC00AF7EE000A60EECA
:10216000200A9FED271A80EE810A10EE100A2860DF
:10217000B4F9020000EE100AB8EEC00AF7EE000A49
:1021800060EE200A9FED1E1A80EE810A10EE100A02
:102190006860B4F9040000EE100AB8EEC00AF7EE69
:1021A000000A60EE200A9FED161A80EE810A10EEFA
:1021B000100AA860B4F9060000EE100AB8EEC00AD2
:1021C000F7EE000A60EE200A9FED0D1A80EE810AFC
:1021D00010EE100AE860B4F9080000EE100AB8EE3C
:1021E000C00AF7EE000A60EE200A9FED051A80EEA5
:1021F000810A10EE100A2861FFF7CAFE30BD000008
:10220000000025442DE9F04104460D4616460027FE
:1022100094F84270202F17D105B116B90120BDE8FE
:10222000F081A562A685002060642268111D3346F6
:102230002A46E06BFEF784FB2068406940F04000CE
:10224000216848610020EAE70220E8E710B504466B
:102250002068006800F01000102807D12068C068CE
:1022600000F0100010B1204600F002F810BD000090
:1022700018B5044600BF0020009020680068009058
:1022800020684068009000BF00BF1448844223D1FA
:10229000E06B0068006820F00100E16B09680860ED
:1022A000E16B0868FFF770FEC0F13200122807D119
:1022B0000B490C48FFF79AFE0B490A48FFF744FF09
:1022C0003220E16B09684860E06B0068006840F00C
:1022D0000100E16B0968086018BD000028000020BB
:1022E000E600002010000020D00000204FF04070D9
:1022F000E1EE100A704700061016000610160000E6
:1023000000000000000001020304060708090000A5
:102310000000010203040000382300080000002030
:1023200028000000C40100086023000828000020E5
:1023300030070000E001000800000000100000006D
:10234000010000000024F400000000000000000074
:102350000000070700000000000000000000070761
:040000050800018965
:00000001FF
