:020000040800F2
:10000000000A00208901000821290008B125000804
:100010001D2900088B020008CD2E000800000000FA
:10002000000000000000000000000000C5290008DA
:1000300045030008000000009B290008C7290008AC
:10004000A3010008A3010008A3010008A301000800
:10005000A3010008A3010008A3010008A3010008F0
:10006000A3010008A3010008A3010008A3010008E0
:10007000A3010008A30100080503000815030008F8
:100080002503000835030008A3010008AD2E000871
:10009000BD2E000891020008A1020008A30100087B
:1000A000392A0008692A0008592A0008492A000844
:1000B000792A0008892A0008992A0008A301000863
:1000C000A3010008A3010008A3010008A301000880
:1000D000A30100089D2E0008A3010008A301000849
:1000E000A3010008A3010008A301000800F002F822
:1000F00000F03AF80AA090E8000C82448344AAF188
:100100000107DA4501D100F02FF8AFF2090EBAE885
:100110000F0013F0010F18BFFB1A43F0010318473B
:100120003C3600005C360000103A24BF78C878C125
:10013000FAD8520724BF30C830C144BF04680C60ED
:10014000704700000023002400250026103A28BF35
:1001500078C1FBD8520728BF30C148BF0B60704739
:100160001FB51FBD10B510BD00F058F81146FFF7C0
:10017000F7FF02F0E5FE00F076F803B4FFF7F2FFB8
:1001800003BC00F07BF8000009488047094800479D
:10019000FEE7FEE7FEE7FEE7FEE7FEE7FEE7FEE737
:1001A000FEE7FEE704480549054A064B7047000094
:1001B000352A0008ED00000800040020000A002095
:1001C00000060020000600204FF0000200B5134694
:1001D00094469646203922BFA0E80C50A0E80C5067
:1001E000B1F12001BFF4F7AF090728BFA0E80C5018
:1001F00048BF0CC05DF804EB890028BF40F8042B11
:1002000008BF704748BF20F8022B11F0804F18BF7D
:1002100000F8012B7047704770477047754600F033
:1002200029F8AE4605006946534620F0070085468A
:1002300018B020B5FFF7B6FFBDE820404FF000062C
:100240004FF000074FF000084FF0000B21F00701BE
:10025000AC46ACE8C009ACE8C009ACE8C009ACE801
:10026000C0098D4670470446AFF300802046FFF773
:1002700084FF0000004870479C03002001491820BB
:10028000ABBEFEE726000200704700BFFEE700009D
:1002900010B5024800F064FA10BD0000A80000206C
:1002A00010B5024800F05CFA10BD0000A800002064
:1002B00010B58AB004460020029003904FF40070FD
:1002C000049000200690079008200890200A8DF8DE
:1002D0000A00E0B28DF80B0001AB02AA04A90448A1
:1002E00000F049F810B900200AB010BD0120FBE76A
:1002F000A8000020024800880149088170470000DA
:100300009003002010B5024800F044FD10BD00002D
:10031000C402002010B5024800F03CFD10BD0000F2
:100320008002002010B5024800F034FD10BD00002E
:100330000803002010B5024800F02CFD10BD00009D
:100340004C030020704772B600BFFEE710B50246AE
:1003500092F82030012B01D0022B06D110684069A1
:10036000084314686061002010BD506A40F480208A
:1003700050620120F8E7F0B504460D461E4694F899
:10038000207020688368A86800B900E000BF012FD2
:1003900001D0022F7DD103F0806030B903F00060FE
:1003A00018B903F0805000287ED0C3F3016101200A
:1003B00088403060A86860B9B5F800C0E86840EAD5
:1003C0004C5C206800F5C07000EB0110C0F800C064
:1003D0000FE0D5E901C040EACC00D5F80CC040EAF6
:1003E0000C00D4F800C00CF5C07C0CEB011CCCF860
:1003F0000000D5F810C0206800F5C07000EB0110B7
:10040000C0F804C0287D01280ED1206800F5C07016
:1004100000EB0110406840F4807C206800F5C0705B
:1004200000EB0110C0F804C0D079000692F806C0B5
:1004300040EA0C4092F805C040EA0C2092F804C053
:1004400040EA0C00D4F800C00CF5C07C0CEB011C99
:10045000CCF80C00D078000692F802C040EA0C40BC
:1004600092F801C040EA0C2092F800C040EA0C006B
:10047000D4F800C00CF5C07C0CEB011CCCF80800D3
:10048000206800F5C07000EB0110006840F0010C1E
:1004900001E00FE008E0206800F5C07000EB0110FB
:1004A000C0F800C00020F0BD606A40F40010606237
:1004B0000120F8E7606A40F4802060620120F2E7E2
:1004C000F0B504460A46216894F82050012D01D069
:1004D000022D74D1D1F8000240F00100C1F80002F1
:1004E000107D00F01F06012000FA06F3D1F81C026F
:1004F0009843C1F81C02D069C8B9D1F80C029843DE
:10050000C1F80C02908880B2968940EA064601F54F
:100510001070576940F83760108880B2168940EA39
:10052000064601F51070576900EBC7004660D069B8
:10053000012819D1D1F80C021843C1F80C02908897
:1005400080B2168840EA064601F51070576940F8F7
:100550003760908980B2168940EA064601F510702E
:10056000576900EBC7004660906928B9D1F80402CA
:100570009843C1F8040204E0D1F804021843C1F81A
:100580000402106928B9D1F814029843C1F8140282
:1005900004E0D1F814021843C1F81402106A0128CB
:1005A00004D1D1F81C021843C1F81C02D1F8000292
:1005B00020F00100C1F800020020F0BDFFE7606AF2
:1005C00040F4802060620120F7E7704770B5044670
:1005D00094F82050012D01D0022D7DD151B9206811
:1005E000C06800F0030080B9606A40F400106062E7
:1005F000012070BD2068006900F0030028B9606A1E
:1006000040F4001060620120F3E7206800F5D87024
:1006100000EB0110006800F004009060906840B9A1
:10062000206800F5D87000EB01100068400D1060E4
:1006300007E0206800F5D87000EB01100068C008E2
:100640005060206800F5D87000EB0110006800F0E1
:100650000200D060206800F5D87000EB01104068FF
:1006600000F00F00082802D30820106108E020687D
:1006700000F5D87000EB0110406800F00F00106129
:10068000206800F5D87000EB0110406800F47F404E
:10069000000A9061206800F5D87000EB01104068F6
:1006A000000C5061206800F5D87000EB01108068E4
:1006B0001870206800F5D87000EB0110806800F415
:1006C0007F40000A5870206800F5D87000EB0110D8
:1006D000806800F47F0000E03CE0000C9870206827
:1006E00000F5D87000EB01108068000ED87020680B
:1006F00000F5D87000EB0110C0681871206800F593
:10070000D87000EB0110C06800F47F40000A5871F7
:10071000206800F5D87000EB0110C06800F47F007D
:10072000000C9871206800F5D87000EB0110C068CB
:10073000000ED87131B92068C06840F020002668EA
:10074000F06005E02068006940F020002668306114
:1007500000204EE7606A40F480206062012048E794
:100760002DE9F05F04460025206846692068D0F82E
:100770000490206887682068D0F80CA02068D0F822
:1007800010B02068D0F8188006F00100002855D07D
:1007900007F00100C0B101202168886007F0020065
:1007A00018B1204600F06DFA0EE007F0040010B119
:1007B00045F4006508E007F0080010B145F48055E5
:1007C00002E0204600F05CFA07F48070C8B14FF4F4
:1007D00080702168886007F4007018B1204600F02E
:1007E00052FA0EE007F4806010B145F4005508E0BD
:1007F00007F4006010B145F4804502E0204600F0A7
:1008000041FA07F48030C8B14FF480302168886025
:1008100007F4003018B1204600F037FA0EE007F474
:10082000802010B145F4004508E007F4002010B125
:1008300045F4803502E0204600F026FA06F0080074
:1008400038B10AF0100020B145F40075102021687D
:10085000C86006F0040040B10AF0080028B1082082
:100860002168C860204600F0C1F906F0020038B1E6
:100870002068C06800F0030010B1204600F0B8F90D
:1008800006F0400038B10BF0100020B145F480654F
:1008900010202168086106F0200040B10BF008002C
:1008A00028B1082021680861204600F0B7F906F059
:1008B000100038B12068006900F0030010B1204634
:1008C00000F0ADF906F4003040B109F0100028B195
:1008D000102021684860204600F0A2F906F480301C
:1008E00040B109F0080028B108202168486020467E
:1008F00000F0CCF906F4004088B309F0040078B3A6
:1009000006F4807020B108F0010008B145F001053F
:1009100006F4007020B108F0020008B145F00205AD
:1009200006F4806020B108F0040008B145F0040529
:1009300006F40060A0B108F0700088B108F0700003
:10094000402817D006DC10280BD020280CD03028E7
:1009500019D10CE0502810D0602814D110E01DE00F
:1009600019E045F008050FE045F010050CE045F0F2
:10097000200509E045F0400506E045F0800503E06C
:1009800045F4807500E000BF00BF2068806920F05A
:100990007000216888610420216848602DB1606A78
:1009A000284360622046FFF710FEBDE8F09F70B557
:1009B00004460CB9012070BD94F8200010B92046FF
:1009C00000F0B0F82068006840F00100216808607D
:1009D00000F072FC05460DE000F06EFC401B0A289A
:1009E00008D9606A40F400306062052084F8200075
:1009F0000120E0E72068406800F001000028EBD00B
:100A00002068006820F002002168086000F054FCB3
:100A100005460DE000F050FC401B0A2808D9606A2A
:100A200040F400306062052084F820000120C2E715
:100A30002068406800F002000028EBD1207E0128E9
:100A400006D12068006840F080002168086005E059
:100A50002068006820F0800021680860607E01281E
:100A600006D12068006840F040002168086005E079
:100A70002068006820F0400021680860A07E0128FE
:100A800006D12068006840F020002168086005E079
:100A90002068006820F0200021680860E07E0128BE
:100AA00006D12068006820F010002168086005E089
:100AB0002068006840F0100021680860207F01284D
:100AC00006D12068006840F008002168086005E051
:100AD0002068006820F0080021680860607F012815
:100AE00006D12068006840F004002168086005E035
:100AF0002068006820F0040021680860D4E9020141
:100B0000084321690843616908436168491E084335
:100B10002168C86100206062012084F82000002064
:100B200049E7000010B586B004460020029003900B
:100B3000049005902A49206888424ED100BF294878
:100B4000C06940F000702749C8610846C06900F0DC
:100B50000070019000BF00BF00BF0846806940F0F0
:100B6000040088610846806900F00400019000BF1D
:100B700000BFC814029000200390049002A91A48F4
:100B800000F00AFA4FF480500290022003900320F4
:100B9000059002A9144800F0FFF900221146132025
:100BA00000F010FC132000F0FDFB00221146142081
:100BB00000F008FC142000F0F5FB0022114615207F
:100BC00000F000FC152000F0EDFB0022114616207D
:100BD00000F0F8FB162000F0E5FB06B010BD0000A9
:100BE000006400400010024000080140704700000F
:100BF00010B58AB0044601AB03AA00212046FFF7D6
:100C0000E5FC40F202210398884203D101A9024881
:100C100002F07AF90AB010BD9003002070477047C7
:100C2000704770B5044694F82000012822D10220B4
:100C300084F820002068006820F001002168086026
:100C400000F03AFB05460DE000F036FB401B0A2899
:100C500008D9606A40F400306062052084F8200002
:100C6000012070BD2068406800F001000028EBD131
:100C70006062F6E7606A40F4002060620120F0E7FD
:100C8000704770477047704770477047704701461C
:100C9000002291F82100022808D00420886300BFB8
:100CA000002081F8200000BF01207047086800681C
:100CB00020F00E000B6818600868006820F0010042
:100CC0000B68186091F8403001209840CB6B586059
:100CD000012081F8210000BF002081F8200000BF22
:100CE0001046E2E770B50446002594F8210002287A
:100CF00003D00420A063012548E02068006820F0AC
:100D00000E00216808602068006820F0010021685A
:100D100008601F492068884201D1012026E01C4953
:100D200014312068884201D110201FE01849283171
:100D30002068884201D1801518E015493C312068AF
:100D4000884201D1801411E0114950312068884255
:100D500002D14FF4803009E00D49643120688842A7
:100D600002D14FF4801001E04FF08070084908393B
:100D70004860012084F8210000BF002084F8200092
:100D800000BF606B10B12046616B8847284670BD7C
:100D90000800024070B50446E06B056820680668EC
:100DA00094F84010042088402840002846D006F0DF
:100DB0000400002842D02068006800F0200028B914
:100DC0002068006820F00400216808605749206806
:100DD000884201D1042027E0544914312068884218
:100DE00001D1402020E0514928312068884201D1BA
:100DF000001519E04D493C312068884202D14FF47A
:100E0000804011E0494950312068884202D14FF4B6
:100E1000802009E0454964312068884202D14FF4BE
:100E2000800001E04FF08060404908394860E06A86
:100E300000287AD02046E16A884776E094F840108E
:100E4000022088402840A0B306F0020088B3206842
:100E5000006800F0200040B92068006820F00A0017
:100E600021680860012084F8210030492068884208
:100E700001D1022028E02D4914312068884201D197
:100E8000202021E0294928312068884201D14015DD
:100E90001AE026493C312068884202D14FF40050C4
:100EA00012E0224950312068884203D14FF40030CB
:100EB0000AE017E01D4964312068884202D14FF4EE
:100EC000001001E04FF0007018490839486000BF79
:100ED000002084F8200000BFA06A30B32046A16A39
:100EE000884722E094F84010082088402840E0B16C
:100EF00006F00800C8B12068006820F00E002168E4
:100F0000086094F8401001208840E16B486001209F
:100F1000A06384F8210000BF002084F8200000BFF7
:100F2000206B10B12046216B884770BD080002403D
:100F30000146002209B901207047164B0868C01A03
:100F40001423B0FBF3F08000086412480838C8632B
:100F5000022081F821000868026843F6F07082439D
:100F6000D1E901031843CB6818430B6918434B6957
:100F700018438B691843CB69184302430868026021
:100F800000208863012081F82100002081F82000E2
:100F900000BFD1E7080002402DE9F84703460022D0
:100FA00094466EE14FF0010808FA02F4D1F800808F
:100FB00008EA0400A0427DD1DFF8DCA2D1F8048069
:100FC000A8EB0A09D0453AD014DCB8F1030F50D091
:100FD00009DCB8F1000F31D0B8F1010F1CD0B8F125
:100FE000020F49D120E0B8F1110F18D0B8F1120F5B
:100FF00042D11EE0B9F5881F25D006DCB9F5803F47
:1010000020D0B9F5801F37D11AE0B9F5001F18D0EC
:10101000B9F5041F30D117E0D1F80CC02DE0D1F89C
:101020000C8008F1040C28E0D1F80C8008F1080CC1
:1010300023E0D1F80C8008F10C0C1EE000BF00BFCB
:1010400000BF00BF00BF00BFD1F80880B8F1000F9B
:1010500002D14FF0040C0BE0D1F80880B8F1010F79
:1010600003D14FF0080C1C6102E04FF0080C5C61EA
:1010700003E04FF0000C00E000BF00BFFF2801D8E4
:10108000984601E003F104084646FF2802D84FEADB
:10109000820803E0A2F108084FEA88084746D6F81C
:1010A00000804FF00F0909FA07F928EA09080CFA3D
:1010B00007F900E088E048EA0908C6F80080D1F89E
:1010C000048008F08058B8F1805F7DD100BFDFF860
:1010D000CC81D8F8188048F00108DFF8C091C9F831
:1010E0001880C846D8F8188008F00108CDF80080AC
:1010F00000BF00BF4FEAB9384FEA920958F82950AB
:101100004FEA82784FEA18794FF00F0808FA09F889
:1011100025EA0805DFF88881434502D14FF0000831
:1011200016E0DFF88081434502D14FF001080FE05F
:10113000DFF87481434502D14FF0020808E0DFF880
:101140006C81434502D14FF0030801E04FF00408E1
:101150004FEA82794FEA197908FA09F848EA050551
:10116000DFF84C814FEA920948F82950D1F8048001
:1011700008F48018B8F5801F0AD1DFF83881D8F854
:10118000008048EA0008DFF82C91C9F8008009E0E7
:10119000DFF82081D8F8008028EA0008DFF81491F1
:1011A000C9F80080D1F8048008F40018B8F5001FD1
:1011B00010D1DFF8008108F10408D8F8008048EA6F
:1011C0000008DFF8F09000E05AE009F10409C9F8DE
:1011D00000800DE0DFF8DC8008F10408D8F800801A
:1011E00028EA0008DFF8CC9009F10409C9F800806A
:1011F000D1F8048008F40038B8F5003F0ED1DFF8CC
:10120000B480A8F10408D8F8008048EA0008DFF8A4
:10121000A490A9F10409C9F800800DE0DFF89480DA
:10122000A8F10408D8F8008028EA0008DFF88490C4
:10123000A9F10409C9F80080D1F8048008F48038C5
:10124000B8F5803F0ED1DFF86C80A8F10808D8F817
:10125000008048EA0008DFF85C90A9F10809C9F8A5
:1012600000800DE0DFF84C80A8F10808D8F8008075
:1012700028EA0008DFF83C90A9F10809C9F80080C5
:10128000521CD1F8008028FA02F8B8F1000F7FF460
:1012900089AEBDE8F8870000000011100010024080
:1012A00000080140000C0140001001400014014002
:1012B0000800014008040140014800687047000030
:1012C00000000020034800680349097808440149E8
:1012D00008607047000000200800002010B5084892
:1012E000006840F0100006490860032000F0A8F8EC
:1012F0000F2000F007F800F02BF8002010BD0000D0
:101300000020024070B504460E4800784FF47A7110
:10131000B1FBF0F00C490968B1FBF0F5284600F08C
:10132000F9FB08B1012070BD102C07D20022214624
:10133000501E00F047F80548046001E00120F2E784
:101340000020F0E7080000200C000020040000202E
:1013500008B500BF1148806940F001000F4988615D
:101360000846806900F00100009000BF00BF00BF88
:101370000846C06940F08050C8610846C06900F066
:101380008050009000BF00BF00BF0549486820F0B2
:10139000E06040F00070486000BF08BD00100240EF
:1013A0000000014001460846002809DB00F01F0349
:1013B00001229A4043099B0003F1E023C3F8002176
:1013C00000BF70472DE9F05F80460D4616460027A6
:1013D00001F07EFD074639462A46334601F00700F4
:1013E000C0F1070ABAF1040F02D94FF0040A01E074
:1013F000C0F1070AD14600F1040ABAF1070F02D280
:101400004FF0000A01E0A0F1030AD4464FF0010AB0
:101410000AFA09FAAAF1010A0AEA020A0AFA0CFA15
:101420004FF0010B0BFA0CFBABF1010B0BEA030BBA
:101430004AEA0B042146404601F052FDBDE8F09F08
:1014400000BF00F00702064B19684FF6FF03194072
:10145000044B0B4343EA0221014B196000BF704764
:101460000CED00E00000FA0570B504460D460CB91D
:10147000012070BD5A48006800F00700A8420ED253
:101480005748006820F0070028435549086008467F
:10149000006800F00700A84201D00120E9E72078A9
:1014A00000F0020002281DD1207800F0040004287A
:1014B00005D14C48406840F4E0604A4948602078D3
:1014C00000F00800082805D14648406840F4605004
:1014D000444948604348406820F0F000A168084350
:1014E00040494860207800F0010078B36068012826
:1014F00006D13C48006800F4003090B90120B8E7FC
:101500006068022806D13748006800F0007040B9D2
:101510000120AEE73348006800F0020008B901205E
:10152000A7E73048406820F00300616808432D4970
:101530004860FFF7C1FE064609E0FFF7BDFE801BCD
:1015400041F28831884202D9032092E707E025481A
:10155000406800F00C006168B0EB810FEDD12048CD
:10156000006800F00700A8420ED91D48006820F06E
:10157000070028431A4908600846006800F0070081
:10158000A84201D0012074E7207800F0040004286C
:1015900007D11448406820F4E060E168084311492D
:1015A0004860207800F00800082808D10D484068FD
:1015B00020F46050216940EAC1000A49486000F007
:1015C0003FF808494968C1F30311074A515CC84014
:1015D0000649086006480068FFF794FE002048E7C7
:1015E00000200240001002402C3700080C000020B0
:1015F0000400002001480068704700000C00002033
:1016000000B5FFF7F7FF04494968C1F30221034A17
:10161000515CC84000BD0000001002403C3700088B
:1016200000B5FFF7E7FF04494968C1F3C221034A47
:10163000515CC84000BD0000001002403C3700086B
:1016400070B500210022002400230020134D69689A
:1016500001F00C05F5B1042D02D0082D19D101E0DF
:101660000F4819E00F4DC1F38346AB5D01F480359F
:1016700055B10A4D6D68C5F340450B4E725D084D7E
:101680005D43B5FBF2F402E0084D03FB05F4204690
:1016900002E000BF024800BF00BF70BD0010024062
:1016A00000127A001A3700082A37000800093D00A6
:1016B000F8B504460CB90120F8BD207800F001000F
:1016C000002878D0F848406800F00C0004280CD0BE
:1016D000F548406800F00C00082811D1F248406835
:1016E00000F48030B0F5803F0AD1EF48006800F484
:1016F000003000285FD0606800285CD10120DBE763
:1017000000BF6068B0F5803F06D1E748006840F44C
:101710008030E549086028E0606858B9E248006810
:1017200020F48030E04908600846006820F48020FA
:1017300008601AE06068B0F5A02F0BD1DA480068A5
:1017400040F48020D84908600846006840F48030A2
:1017500008600AE0D448006820F48030D24908606C
:101760000846006820F48020086000BF606888B1E7
:10177000FFF7A2FD054606E0FFF79EFD401B64282B
:1017800001D9032098E7C848006800F40030002819
:10179000F2D010E0FFF790FD054606E0FFF78CFD64
:1017A000401B642801D9032086E7BF48006800F485
:1017B00000300028F2D1207800F00200022857D132
:1017C000B948406800F00C0050B1B748406800F0DC
:1017D0000C00082818D1B448406800F4803098B94B
:1017E000B148006800F0020020B12069012801D052
:1017F000012061E7AC48006820F0F800616940EA28
:10180000C100A949086033E02069E8B10120A74977
:101810000860FFF751FD054606E0FFF74DFD401B50
:10182000022801D9032047E79F48006800F0020022
:101830000028F2D09C48006820F0F800616940EA76
:10184000C1009949086013E0002098490860FFF73B
:1018500033FD054606E0FFF72FFD401B022801D9A6
:10186000032029E79048006800F002000028F2D128
:10187000207800F0080008282DD1A069B8B1012017
:101880008B490860FFF718FD054606E0FFF714FDD9
:10189000401B022801D903200EE78348406A00F06C
:1018A00002000028F2D0012001F078F813E00020B7
:1018B0007F490860FFF700FD054606E0FFF7FCFCE6
:1018C000401B022801D90320F6E67748406A00F061
:1018D00002000028F2D1207800F00400042873D11F
:1018E00000277148C06900F0805070B900BF6E4891
:1018F000C06940F080506C49C8610846C06900F07A
:101900008050009000BF00BF01276A48006800F4C3
:101910008070B0B96748006840F48070654908601D
:10192000FFF7CAFC054606E0FFF7C6FC401B64282B
:1019300001D90320C0E65F48006800F480700028E9
:10194000F2D000BFE068012806D15748006A40F095
:1019500001005549086227E0E06858B95248006A1A
:1019600020F00100504908620846006A20F0040097
:10197000086219E0E06805280BD14B48006A40F086
:101980000400494908620846006A40F00100086204
:101990000AE04548006A20F0010043490862084611
:1019A000006A20F00400086200BFE068A0B1FFF701
:1019B00083FC054609E0FFF77FFC401B41F28831BC
:1019C000884202D9032077E622E03748006A00F017
:1019D00002000028EFD012E0FFF76EFC054608E099
:1019E000FFF76AFC401B41F28831884201D903208D
:1019F00062E62D48006A00F002000028F0D1012FB5
:101A000005D12948C06920F080502749C86100BF2E
:101A1000E069C8B32448406800F00C00082860D092
:101A2000E069022848D1002020490866FFF744FCFD
:101A3000054606E0FFF740FC401B022801D90320C1
:101A40003AE61948006800F000700028F2D1206AD8
:101A5000B0F5803F07D11448406820F40030A168F9
:101A6000084311494860D4E9080108430E49496810
:101A700021F4741108430C49486001200B490866A1
:101A8000FFF71AFC054607E03DE0FFF715FC401B99
:101A9000022801D903200FE60348006800F0007017
:101AA0000028F2D02FE00000001002400000424267
:101AB0008004424200700040002014490866FFF78D
:101AC000FBFB054606E0FFF7F7FB401B022801D9A8
:101AD0000320F1E50E48006800F000700028F2D104
:101AE00011E0E069012800D1E6E50948466806F4FE
:101AF0008031206A814204D106F47011606A81420B
:101B000001D00120D8E50020D6E5000000004242C7
:101B10000010024070B504462546681EB0F1807F73
:101B200001D301200FE0681E4FF0E02148610F2132
:101B30004FF0FF3001F0D4F900204FF0E021886130
:101B400007200861002070BD7047704730B502461D
:101B50000B4600BF92F83C00012801D1022030BDA5
:101B6000012082F83C0000BF022082F83D0010688E
:101B700044681068816824F0700418680443106891
:101B80004460104D1068A8420BD01068B0F1804F2F
:101B900007D00D4D1068A84203D00C4D1068A84224
:101BA00005D121F08001586801431068816001204F
:101BB00082F83D0000BF002082F83C0000BF00BF5B
:101BC000CDE70000002C0140000400400008004068
:101BD00010B504460CB9012010BD94F83D0028B999
:101BE000002084F83C00204600F026F8022084F80B
:101BF0003D00211D206800F057FF012084F84600B9
:101C000000BF84F83E0001213F20015540200155CE
:101C10004120015500BF00BF012084F8420043204D
:101C20000155442001554520015500BF012084F88D
:101C30003D000020D0E7000038B504464149206847
:101C400088422ED100BF4048806940F400603E4980
:101C500088610846806900F40060009000BF00BF02
:101C6000002211461820FFF7ADFB1820FFF79AFB62
:101C7000002211461920FFF7A5FB1920FFF792FB60
:101C8000002211461A20FFF79DFB1A20FFF78AFB5E
:101C9000002211461B20FFF795FB1B20FFF782FB5C
:101CA0004FE02068B0F1804F16D100BF2648C069D0
:101CB00040F001002449C8610846C06900F00100F5
:101CC000009000BF00BF002211461C20FFF77AFBE6
:101CD0001C20FFF767FB34E01C492068884216D1BE
:101CE00000BF1948C06940F002001749C8610846A2
:101CF000C06900F00200009000BF00BF0022114642
:101D00001D20FFF75FFB1D20FFF74CFB19E010497A
:101D10002068884215D100BF0B48C06940F004001C
:101D20000949C8610846C06900F00400009000BF7E
:101D300000BF002211461E20FFF744FB1E20FFF7C4
:101D400031FB38BD002C014000100240000400406F
:101D500000080040014691F83D00012801D0012013
:101D60007047022081F83D000868C06840F001001B
:101D70000B68D860124B086898420BD00868B0F125
:101D8000804F07D00F4B0868984203D00E4B08686D
:101D900098420CD10868806800F00702062A0CD02F
:101DA0000868006840F001000B68186005E00868EA
:101DB000006840F001000B6818600020D0E70000C8
:101DC000002C014000040040000800402DE9F041D3
:101DD00004460D46002700BF94F83C00012802D1BC
:101DE0000220BDE8F081012084F83C0000BF022001
:101DF00084F83D002068866826F0770626F47F4642
:101E0000206886602868502833D00CDC202850D009
:101E100004DC00284BD0102851D149E0302849D0AB
:101E200040284CD139E060282DD0702807D0B0F57B
:101E3000805F03D0B0F5005F41D10DE041E0D5E90E
:101E400002136A68206800F071FE2068866846F018
:101E500077062068866034E0D5E902136A68206856
:101E600000F064FE2068806840F48040216888604B
:101E700027E0EA686968206800F06CFE502120685D
:101E800000F05FFE1DE0EA686968206800F075FEFA
:101E90006021206800F055FE13E0EA686968206858
:101EA00000F058FE4021206800F04BFE09E000BF22
:101EB00000BF00BF2968206800F043FE01E0012751
:101EC00000BF00BF012084F83D0000BF002084F85F
:101ED0003C0000BF384684E7704770B50446206870
:101EE000C5682068066906F00200022819D105F0CD
:101EF0000200022815D1401F2168086101202077C7
:101F00002068806900F0030018B12046FFF7E4FF65
:101F100005E0204600F097F8204600F095F80020F4
:101F2000207706F00400042819D105F004000428E5
:101F300015D1C0432168086102202077206880699C
:101F400000F4407018B12046FFF7C6FF05E02046B8
:101F500000F079F8204600F077F80020207706F0AE
:101F60000800082819D105F00800082815D1C04339
:101F700021680861042020772068C06900F0030010
:101F800018B12046FFF7A8FF05E0204600F05BF8F7
:101F9000204600F059F80020207706F010001028A5
:101FA00019D105F01000102815D1C043216808612F
:101FB000082020772068C06900F4407018B12046DE
:101FC000FFF78AFF05E0204600F03DF8204600F0CC
:101FD0003BF80020207706F0010048B105F0010031
:101FE00030B16FF0010021680861204600F02EF842
:101FF00006F08000802809D105F08000802805D1F6
:10200000C043216808612046FFF79EFD06F04000AE
:10201000402809D105F04000402805D1C04321687F
:102020000861204600F01EF806F02000202809D1A3
:1020300005F02000202805D1C04321680861204612
:10204000FFF783FD70BD70477047000010B5044670
:102050002068B0F1804F02D1014800F0D7FF10BDD9
:102060001400002070477047704700002DE9F84FBA
:102070000446206805682068C668206847694FF0F4
:102080000009CA4605F00F09B9F1000F0AD105F0A1
:10209000200038B106F0200020B1204600F0D1FD2C
:1020A000BDE8F88FB9F1000F7BD007F0010018B937
:1020B00006F49070002874D005F0010030B106F4E9
:1020C000807018B1606C40F00100606405F004009D
:1020D00030B107F0010018B1606C40F0020060649C
:1020E00005F0020030B107F0010018B1606C40F05B
:1020F0000400606405F0080048B106F0200010B943
:1021000007F0010018B1606C40F008006064606C7A
:10211000002845D005F0200028B106F0200010B1BD
:10212000204600F08EFD20684069C0F3801A606C84
:1021300000F0080010B9BAF1000F2CD0204600F0D2
:102140003AFD2068406900F0400000B300BF00BFC6
:102150002168143151E8001F21F04000216814313A
:1021600041E80002002AF3D100BFE06B50B177488C
:10217000E16B4863E06BFEF7B5FD88B1E06B416B46
:1021800088470DE02046FFF76FFF09E009E0204691
:10219000FFF76AFF04E02046FFF766FF0020606457
:1021A0007EE7206B012877D105F01000002873D05E
:1021B00006F010000028FAD000BF00200090206830
:1021C0000068009020684068009000BF00BF206851
:1021D000406900F0400000285FD0E06B0068406874
:1021E0001FFA80F8B8F1000F55D0A08D404552DDA0
:1021F000A4F82E80E06B8069202843D000BF00BF88
:1022000021680C3151E8001F21F4807021680C31E5
:1022100041E80002002AF3D100BF00BF00BF2168DF
:10222000143151E8001F21F001002168143141E808
:102230000002002AF3D100BF00BF00BF21681431A3
:1022400051E8001F21F040002168143141E80002EC
:10225000002AF3D100BF202084F842000020206330
:1022600000BF00BF21680C3151E8001F21F01000B1
:1022700021680C3141E80002002AF3D100BFE06B75
:10228000FEF705FD02206063A08DE28D801A81B209
:102290002046FFF7E8FE03E742E0A08DE18D401AFB
:1022A0001FFA80F8E08DD0B3B8F1000F37D000BF2F
:1022B00000BF21680C3151E8001F21F490702168A3
:1022C0000C3141E80002002AF3D100BF00BF00BF7B
:1022D0002168143151E8001F21F0010021681431F8
:1022E00041E80002002AF3D100BF202084F8420018
:1022F0000020206300BF00BF21680C3151E8001F9F
:1023000021F0100021680C3141E80002002AF3D1CD
:1023100000BF0220606341462046FFF7A4FEBFE6EF
:1023200005F0800030B106F0800018B1204600F0C2
:1023300085FDB5E605F0400030B106F0400018B16B
:10234000204600F06EFCABE600BFA9E6A32B000818
:1023500010B504460CB9012010BDA06900B100E021
:1023600000BF94F8410028B9002084F840002046BE
:1023700000F02AF8242084F841002068C06820F486
:1023800000502168C860204600F0DAFC206800692F
:1023900020F49040216808612068406920F02A00FC
:1023A000216848612068C06840F400502168C86016
:1023B00000206064202084F8410084F8420000205E
:1023C000606300BFC8E7000010B586B00446002077
:1023D00002900390049005906B49206888426AD16E
:1023E00000BF6A48806940F48040684988610846B7
:1023F000806900F48040019000BF00BF00BF084624
:10240000806940F0040088610846806900F004009B
:10241000019000BF00BF48150290022003900320E6
:10242000059002A95A48FEF7B7FD4FF4806002906C
:1024300000200390049002A95548FEF7ADFD5548D1
:102440005549086000204860002153488160802180
:10245000C1600021016141618161C161FEF768FDD8
:1024600008B1FDF770FF00BF4B48E063446200BF56
:1024700048481438494908601020486000214748FE
:1024800081608021C1600021016141618161C16180
:10249000FEF74EFD08B1FDF756FF00BF3F48A063B1
:1024A000446200BF002211462520FEF78BFF252045
:1024B000FEF778FF65E03A492068884261D100BFA5
:1024C0003248C06940F400303049C8610846C069EC
:1024D00000F40030019000BF00BF00BF08468069D3
:1024E00040F0040088610846806900F00400019013
:1024F00000BF00BF0420029002200390032005903B
:1025000002A92348FEF748FD08200290002003900E
:10251000049002A91E48FEF73FFD1E4814302149D1
:1025200008600020486000211E4881608021C16051
:102530000021016141618161C161FEF7F9FC08B1CF
:10254000FDF701FF00BF1748E063446200BF114878
:102550002830154908601020486000211248816029
:102560008021C1600021016141618161C161FEF78B
:10257000DFFC08B1FDF7E7FE00BF0B48A063446233
:1025800000BF06B010BD000000380140001002403E
:10259000000801405800024080020020C4020020D0
:1025A00000440040080300204C030020704770479F
:1025B00000BFFEE770B505460C462146284601F0EF
:1025C00005F801D2204670BD84F000462946304609
:1025D00000F0FCFF02D284F00040F4E72846F2E766
:1025E00000B58BB019481A490860042048600021E2
:1025F00017488160C1604FF480210161C9004161C9
:102600000021017641768176C17601774177FEF728
:10261000CEF908B1FDF797FE012009900020079040
:1026200001200890002001900290039004900690F1
:1026300005900748FEF7F5FA01A90548FDF740FFA8
:1026400002210348FDF782FE0BB000BD006400408C
:10265000A800002008B500BF1648406940F00100FE
:10266000144948610846406900F00100009000BF2D
:1026700000BF002211460E20FEF7A4FE0E20FEF73A
:1026800091FE002211460F20FEF79CFE0F20FEF760
:1026900089FE002211461020FEF794FE1020FEF75E
:1026A00081FE002211461120FEF78CFE1120FEF75C
:1026B00079FE08BD0010024008B500BF0D488069D2
:1026C00040F020000B4988610846806900F0200036
:1026D000009000BF00BF00BF0846806940F00400C2
:1026E00088610846806900F00400009000BF00BFC8
:1026F00008BD00000010024000B587B00020039024
:1027000004900590069001900290154815490860C4
:10271000002048600021134881604FF6FF71C160BE
:102720000021016141618161FFF752FA08B1FDF7B3
:102730000AFE4FF48050039003A90A48FFF746FBB6
:1027400008B1FDF700FE00200190029001A90548A4
:10275000FFF7FCF908B1FDF7F6FD07B000BD00007A
:10276000002C0140D000002000B587B0002003906D
:10277000049005900690019002904FF0804014491B
:102780000860002048600021114881604FF6FF7109
:10279000C160002101618161FFF71AFA08B1FDF7FC
:1027A000D2FD4FF48050039003A90948FFF70EFBB8
:1027B00008B1FDF7C8FD00200190029001A904486E
:1027C000FFF7C4F908B1FDF7BEFD07B000BD00007A
:1027D0001801002000B587B00020039004900590F8
:1027E0000690019002901448144908600020486047
:1027F0000021124881604FF6FF71C1600021016124
:102800008161FFF7E5F908B1FDF79DFD4FF48050B8
:10281000039003A90948FFF7D9FA08B1FDF793FD22
:1028200000200190029001A90448FFF78FF908B138
:10283000FDF789FD07B000BD0004004060010020E5
:1028400000B587B000200390049005900690019099
:102850000290144814490860002048600021124882
:1028600081604FF6FF71C160002101618161FFF756
:10287000AFF908B1FDF767FD4FF48050039003A94D
:102880000948FFF7A3FA08B1FDF75DFD00200190AC
:10289000029001A90448FFF759F908B1FDF753FD6B
:1028A00007B000BD00080040A801002010B50B488B
:1028B0000B4908604FF4E13048600021084881600E
:1028C000C16001610C21416100218161C161FFF79B
:1028D0003FFD08B1FDF737FD10BD00000038014095
:1028E000F001002010B50B480B4908604FF4E130AF
:1028F0004860002108488160C16001610C2141618C
:1029000000218161C161FFF723FD08B1FDF71BFDC7
:1029100010BD0000004400403802002000BFFEE768
:1029200000BFFEE72DE9F04104460E46154614B9F6
:102930000020BDE8F081216B6163E16A21633146CB
:10294000284600F075FEE0626561A661E16A2068D4
:1029500000F070FD2062E16A606800F06BFD0746E0
:10296000616A00F0CFFB6062D4E90B0100F060FE09
:102970000746A16800F05EFDA062D4E9080100F0FE
:10298000C1FB0746A16A00F0BDFBE061E168E069B8
:10299000FFF710FEE061E069CBE7704708B5084932
:1029A0000968C9084FF47A72B1FBF2F14143009112
:1029B00000BF00BF00994A1E00920029F9D108BD4E
:1029C0000C000020704710B5FEF77CFC10BD00B570
:1029D0008FB0282105A8FDF7F7FB14216846FDF705
:1029E000F3FB0120059000040690002007900120D1
:1029F000099002200C90C1030D914FF4E0110E914B
:102A000005A8FEF755FE08B1FDF79DFC0F200090CC
:102A100002200190002002904FF48060039000207B
:102A2000049002216846FEF71FFD08B1FDF78BFCFC
:102A30000FB000BD7047000010B50248FFF74DFA17
:102A400010BD0000D000002010B50248FFF745FA85
:102A500010BD0000D000002010B50248FFF73DFA7D
:102A600010BD0000D000002010B50248FFF735FA75
:102A700010BD0000D000002010B50248FFF72DFA6D
:102A800010BD00001801002010B50248FFF725FA1C
:102A900010BD00006001002010B50248FFF71DFACC
:102AA00010BD0000A801002010B502681C4B984220
:102AB00008D0B0F1804F05D01A4B984202D01A4B83
:102AC000984203D122F070024B681A43144B98428B
:102AD00008D0B0F1804F05D0124B984202D0124B73
:102AE000984203D122F44072CB681A4322F080034B
:102AF0004C6943EA040202608B68C3620B6883621C
:102B0000074B984201D10B690363012343610369B9
:102B100003F001031BB1036923F00103036110BD3E
:102B2000002C0140000400400008004030B50C4675
:102B3000816821F47F4142EA0325254329438160CE
:102B400030BD0A46816821F0700142F00703194345
:102B50008160704730B50B461446026A056A25F05D
:102B600001050562816921F0F00141EA041122F0BA
:102B70000A021A438161026230BD30B50B46144629
:102B8000026A056A25F010050562816921F4704129
:102B900041EA043122F0A00242EA0312816102629A
:102BA00030BD70B505466C6A0020E085E0842046A3
:102BB000FFF75AFA70BD00BF00BF02680C3252E83E
:102BC000002F22F4907102680C3242E80013002BAF
:102BD000F3D100BF00BF00BF0268143252E8002FDB
:102BE00022F001010268143242E80013002BF3D1F5
:102BF00000BF016B01290ED100BF00BF02680C327B
:102C000052E8002F22F0100102680C3242E8001353
:102C1000002BF3D100BF202180F842100021016376
:102C2000704710B504462068C06820F04000216855
:102C3000C860202084F841002046FFF7B8FC00203F
:102C400010BDF8B5044694F84200222875D1A0685A
:102C5000B0F5805F0CD1206950B90025A66A2068C4
:102C60004068C0F308003080A06A801CA06215E0B4
:102C7000A56A0026A068B0F5805F03D0A06828B9D7
:102C8000206918B920684068287004E0206840680E
:102C900000F07F002870A06A401CA062E08D401EFA
:102CA00080B2E085002846D12068C06820F020006E
:102CB0002168C8602068C06820F480702168C860FE
:102CC0002068406920F0010021684861202084F8D4
:102CD000420000206063206B012826D10020206381
:102CE00000BF00BF21680C3151E8001F21F0100027
:102CF00021680C3141E80002002AF3D100BF2068AE
:102D0000006800F0100010280AD100BF00200090D9
:102D100020680068009020684068009000BF00BFF5
:102D2000A18D2046FFF79FF902E02046FFF73EFC09
:102D30000020F8BD01E00020FBE70220F9E70000D9
:102D400070B504462168096921F44051E2681143D5
:102D5000226811612269A1681143626941EA020592
:102D60002168C96841F20C62914329432268D1600D
:102D70002168496921F44071A269114322685161B7
:102D80002D4A2168914202D1FEF74AFC01E0FEF78C
:102D900037FC00EBC00101EB001162689200B1FB4F
:102DA000F2F100EBC00202EB001263689B00B2FB81
:102DB000F3F26423B2FBF3F202EBC20303EB021261
:102DC000A1EB8201322202EB01116422B1FBF2F18C
:102DD00001F0F00100EBC00202EB001263689B00FF
:102DE000B2FBF3F26423B2FBF3F201EB021200EB4D
:102DF000C00101EB001163689B00B1FBF3F100EB34
:102E0000C00303EB00136668B600B3FBF6F3642659
:102E1000B3FBF6F303EBC30606EB0313A1EB83014D
:102E2000322303EB01116423B1FBF3F101F00F0135
:102E300011442268916070BD00380140014691F84C
:102E40004100212828D18868B0F5805F0BD108693E
:102E500048B90A6A1088C0F308000B685860086A0D
:102E6000801C086205E00B6A581C086218780B6821
:102E70005860C88C401E80B2C88458B90868C068C1
:102E800020F080000B68D8600868C06840F04000FF
:102E90000B68D860002070470220FCE710B502489C
:102EA000FFF7E4F810BD0000F001002010B5024863
:102EB000FDF756FC10BD0000A800002010B5024828
:102EC000FDF74EFC10BD0000A800002000BFFEE78B
:102ED00002480068C0F30220704700000CED00E0DB
:102EE00010B5002804DB0A07130E054A135406E048
:102EF0000A07140E034A00F00F031B1FD45410BD21
:102F000000E400E018ED00E0028802814A780B78C6
:102F100042EA03220280CA788B7842EA032212B284
:102F200042804A790B7942EA032212B282808A797E
:102F300082717047014601487047000090030020ED
:102F4000FEF7CCF9FFF743FDFFF7B6FBFFF782FB77
:102F5000FFF746FBFFF7D0FBFFF706FCFFF73AFC55
:102F6000FFF76EFCFFF7A2FCFFF7BCFCFDF7C2F910
:102F700001200B4981F888000020FFF7DBFF0446A1
:102F80002146074800F012F80120054981F8890020
:102F90000448C1F880000448FEF7DCFE00BFFEE7ED
:102FA0001400002000007A441801002030B587B0DA
:102FB00004460D4625600020606784F88900104AA9
:102FC00007CA04AB07C30F4B0F4A04A9201D00F02A
:102FD00085F80B4A0C3207CA01AB07C3094B4FF007
:102FE0008D4201A904F13C0000F078F800206067F0
:102FF000A067E067C4F88000C4F8840007B030BD63
:103000004437000800007A4400007A452DE9F04773
:1030100007463C4626680EB9BDE8F08730883189FE
:10302000451AB5F5805F02DDA5F5005504E015F5FC
:10303000805F01DA05F50055284600F0AFF98246B9
:1030400023480168504600F0F5F981464FF08C4165
:1030500000F0C6F88046616F00F054F8606794F89D
:103060008900C0B9201DD4E91D12FFF75BFCC4F82C
:1030700080001849D4F8800000F0A8FA02D2154860
:10308000C4F880001449D4F8800000F09FF902D2FF
:103090001148C4F88000B6F9020000F07FF9E0673B
:1030A00004F13C00D4E91F12FFF73CFCC4F8840093
:1030B00094F88800042808DAD4F8840000F052F963
:1030C0000FFA80F84046FDF7F3F800BFA4E70000D0
:1030D0001000002000007A4500007AC530B50C6869
:1030E00004604C6844608C688460C26003610024A2
:1030F000C462002505634563046244628462C4615E
:1031000030BD000090EA010F48BF81F0004100F19E
:103110009682421A3CBF801A89184FEAD0524FF06B
:103120007F4C1CEA410FA2EBD15318BF9CEA026FFF
:1031300000F03B804FF0004C4CEA00204CEA0121AB
:1031400021FA03FC10EB0C0C1ED202F1FF325FEAF5
:103150001C2040EBC25038BF70471CF07F0F4FEA75
:10316000400C18BFBCF17F4F38BF7047C3F120033C
:10317000994008BF20F00100BCF17F4F38BF704775
:10318000A0F1C04000F01DBA4FEA3C00000A40EB3D
:10319000C25028BF1CF0FF0F4FEA400CE6D018BF0A
:1031A000BCF17F4F38BF7047EAE79CEA026F05D059
:1031B00010EA5C0F08BF00F00040704710B500F047
:1031C000BAF900BF64FBBE3E401058BFC0F140409A
:1031D000491058BFC1F140418142EFF30080704770
:1031E0004FF47F0C1CEAD0121EBF1CEAD11392EAE6
:1031F0000C0F93EA0C0F00F0858090EA010F48BF96
:1032000042F4807240F4000C41F400002CF07F4145
:1032100020F07F4000B58142A2EB03020FF2081CB0
:10322000ACEB504EC0F100009EF800E04FEA4E0EAD
:1032300000FB0EFC38BF49004FEA2C1C02F5FA02D5
:103240000CFB0EF34FEACE1E4FEA112C4FEAC121C0
:103250000EEB635E42EB22420EFB0CFC4FEA1C536A
:1032600000FB03114FEA112C4FEA01310EFB0CFC5D
:103270004FEADC4C00FB0C11C14228BF09184CEB93
:1032800003335DF804EB10EB410143EBC250B2F5A0
:103290007C0F38BF704729D512F0F00F1CBF00F12A
:1032A000C04000F00040704700818283848586879B
:1032B00088898B8C8D8E8F919293959697999A9CF5
:1032C0009D9FA0A2A3A5A7A8AAACAEB0B2B3B5B764
:1032D000B9BCBEC0C2C5C7C9CCCED1D4D7D9DCDF3A
:1032E000E2E6E9ECF0F3F7FAFE0000004FEA400CEA
:1032F0000CF1807CBCF17E4F28BF7047B0F1C0401C
:1033000000F05FB990EA010F0CEAD11348BF42F414
:103310008072624538BF634507D213F47F0F16D021
:1033200080EA010000F00040704710B500F003F99A
:10333000097EFC3E00F005B880EA010000F0004084
:10334000704780EA010000F0004000F03AB912F442
:103350007F0F04BF0248704780EA010000F031B9D6
:103360000000C07F41000B0ED3F19E0208D950F43B
:1033700000034FEA032323FA02F048BF404270479C
:1033800010B500F0D8F800BF4992248000207047A3
:103390006FF0004282EA20007047000010F0004108
:1033A00048BF4042B0FA80F310FA03F2C3F19D0324
:1033B0000BD051EAC35101EB1220530638BF7047BE
:1033C00000F1010008BF20F00100704750EA010C35
:1033D00000F113801CF5000F58BFBCF5000F01D49D
:1033E0008842704707D710F5000F58BF11F5000F3E
:1033F00015D488427047894270471CF5000F04D5E8
:10340000BCF5000FF7D5814270474FF0807C1CEB74
:10341000400F38BF1CEB410F01D28142704710B5FD
:1034200000F089F8922449004FF000504FF080518D
:10343000FFF7CABE4FF47F0C1CEAD0121EBF1CEA75
:10344000D11392EA0C0F93EA0C0F00F0478090EA38
:10345000010F48BF42F480724FF0004C4CEA00204C
:103460004CEA012102EB0302A0FB0113A2F50002CA
:10347000002918BF43F001035B0028BF4FEA330364
:1034800042EB22425FEA132C4CEBC2502EBFBCEB46
:10349000436FB2F57C0F70474FEA036CBCF1004FED
:1034A00008BF20F00100B2F57C0F38BF70470BD584
:1034B00082F0FF0212F5803FC8BF704700F1C040A4
:1034C000D8BF00F00040704700F5000C5FEA4C0CDC
:1034D00048BF7047B0F1C04000F073B890EA010FE8
:1034E0000CEAD11348BF42F48072624538BF63458D
:1034F00004D280EA010000F00040704710B500F0EF
:103500001AF800BF8900013E00F007B800F009B8C2
:103510005FEA410C5FEA1C6C08D080EA010000F011
:1035200050B85FEA400C5FEA1C6CF6D14FF00040E7
:10353000A0F5800070470EF1020E2EF0030E5EF82B
:10354000044B244204D44FEA4102B2F17F4F11D818
:103550004FEA4003B3F17F4F0CD80ED14FEAD07C35
:10356000B2F17F4F0CEB4C0C0CF1020C08BF4CEB92
:10357000D17C04E04FF0080C01E04FEAD17C0CEB69
:103580004C0324FA03F404F00704B4F1040C06D24B
:103590000EEB840CBDE810404CF0010C6047DFE8F6
:1035A0000CF0070802024FF00040A0F5800010BDAB
:1035B0000846420018BFD2F1807288BF00F0004078
:1035C00010BDFF2141EAD050C005704751EA000C00
:1035D00000F113801CF5000F58BFBCF5000F01D49B
:1035E0008142704707D711F5000F58BF10F5000F43
:1035F00015D481427047894270471CF5000F04D5ED
:10360000BCF5000FF7D5884270474FF0807C1CEB6B
:10361000410F38BF1CEB400F01D28842704780EA4F
:10362000010081EA000180EA0100FFF7F8BE000016
:1036300090EA010F48BF81F000413FF56AAD421AA0
:1036400004D882F00042A0EB020011444FEAD052AD
:103650004FF07F4C1CEA410FA2EBD15318BF9CEAFC
:10366000026F4AD04FF0004C4CEA00204CEA012196
:1036700021FA03FCB0EB0C0C0FD412F0FE0F36D085
:103680005FEA4C001DD5001240EBC25038BF7047B6
:103690001CF03F0F18BF70470BE0A2F101025FEA78
:1036A0001C2040EBC25038BF70471CF07F0F18BF82
:1036B0007047C3F12003994014BF401E20F0010061
:1036C000704780084FEA122308BF7047B0FA80FCA9
:1036D000A2EB0C02CCF1280C60FA0CF093EA122F4A
:1036E00004BF00EBC25070474FEAC3707047130A23
:1036F0005FEADC1008BF7047F6E79CEA026F04D06F
:1037000010EA5C0F08BF0020704710B5FFF713FFE9
:1037100040DFF63E81F000407047020304050607D3
:1037200008090A0B0C0D0E0F10100102000000001A
:103730000000000001020304060708090000000061
:1037400001020304000048430000000000000040A4
:1037500000002041CDCC4C3D0000803F7C3700086C
:103760000000002014000000280100089037000825
:1037700014000020EC0900004401000800000000D3
:10378000100000000100000000127A00DB0FC940A9
:04000005080000ED02
:00000001FF
